:020000040800F2
:10000000FFFF022051130008A1130008A1130008EC
:10001000A1130008A1130008A113000800000000AC
:10002000000000000000000000000000A113000814
:10003000A113000800000000A1130008A11300088C
:10004000A1130008A1130008A1130008A1130008C0
:10005000A1130008A1130008A1130008A1130008B0
:10006000A1130008A1130008A1130008A1130008A0
:10007000A1130008A1130008A1130008A113000890
:10008000A1130008A1130008A1130008A113000880
:10009000A1130008A1130008A1130008A113000870
:1000A000A1130008A1130008A1130008A113000860
:1000B000A1130008A1130008A1130008A113000850
:1000C000A1130008A1130008A1130008A113000840
:1000D000A1130008A1130008A1130008A113000830
:1000E000A1130008A1130008A1130008A113000820
:1000F000A1130008A1130008A1130008A113000810
:10010000A1130008A1130008A1130008A1130008FF
:10011000A1130008A1130008A1130008A1130008EF
:10012000A1130008A1130008A1130008A1130008DF
:10013000A1130008A1130008A1130008A1130008CF
:10014000A1130008A1130008A1130008A1130008BF
:10015000A1130008A1130008A1130008A1130008AF
:10016000A1130008A1130008A1130008A11300089F
:10017000A1130008A1130008A1130008000000004B
:10018000A1130008A1130008A1130008A11300087F
:10019000A1130008A1130008A1130008A11300086F
:0C01A000A1130008A1130008A11300081F
:1001B00010B5054C237833B9044B13B10448AFF3A1
:1001C00000800123237010BD4004002000000000C7
:1001D000A4130008084B10B51BB108480849AFF339
:1001E00000800848036803B910BD074B002BFBD003
:1001F000BDE81040184700BF00000000A41300082D
:1002000044040020400400200000000080B489B0B5
:1002100000AF7860396000237B6100233B610023DD
:10022000BB610023FB6171E1FB69012202FA03F368
:100230007B613B681A687B6913403B613A697B6963
:100240009A4240F060813B685B68022B03D03B68B8
:100250005B68122B22D1FB69DA087B68083253F8FD
:100260002230BB61FB6903F007039B001A460F2392
:100270009340DB43BA691340BB613B681B69FA6971
:1002800002F0070292009340BA691343BB61FB6915
:10029000DA087B680832B96943F822107B681B686A
:1002A000BB61FB695B001A4603239340DB43BA69D9
:1002B0001340BB613B685B6803F00303FA695200BB
:1002C0009340BA691343BB617B68BA691A603B68A3
:1002D0005B68012B0BD03B685B68022B07D03B6847
:1002E0005B68112B03D03B685B68122B2FD17B68B6
:1002F0009B68BB61FB695B001A4603239340DB43A9
:10030000BA691340BB613B68DB68FA6952009340ED
:10031000BA691343BB617B68BA699A607B685B68A2
:10032000BB61FB69012202FA03F3DB43BA691340A4
:10033000BB613B685B6803F010031A09FB6902FAB2
:1003400003F3BA691343BB617B68BA695A607B687F
:10035000DB68BB61FB695B001A4603239340DB4308
:10036000BA691340BB613B689B68FA6952009340CD
:10037000BA691343BB617B68BA69DA603B685B6842
:1003800003F08053002B00F0BE80654A644B5B6C29
:1003900043F480435364624B5B6C03F48043FB6023
:1003A000FB68604AFB699B08023352F82330BB614B
:1003B000FB6903F003039B001A460F239340DB43C2
:1003C000BA691340BB617B68574A934237D07B6858
:1003D000564A934231D07B68554A93422BD07B6872
:1003E000544A934225D07B68534A93421FD07B687E
:1003F000524A934219D07B68514A934213D07B688A
:10040000504A93420DD07B684F4A934207D07B6895
:100410004E4A934201D1092312E00A2310E0082337
:100420000EE007230CE006230AE0052308E004237E
:1004300006E0032304E0022302E0012300E000239E
:10044000FA6902F0030292009340BA691343BB6158
:100450003449FB699B080233BA6941F823203C4BBD
:100460001B68BB613B69DB43BA691340BB613B68F6
:100470005B6803F48033002B03D0BA693B691343F4
:10048000BB61334ABB691360314B5B68BB613B693D
:10049000DB43BA691340BB613B685B6803F400331C
:1004A000002B03D0BA693B691343BB61284ABB697F
:1004B0005360274B9B68BB613B69DB43BA691340C0
:1004C000BB613B685B6803F48013002B03D0BA69FF
:1004D0003B691343BB611E4ABB6993601C4BDB68DD
:1004E000BB613B69DB43BA691340BB613B685B6836
:1004F00003F40013002B03D0BA693B691343BB61BB
:10050000134ABB69D360FB690133FB61FB690F2BA5
:100510007FF68AAE2437BD465DF8047B704700BF86
:100520000038024000380140000002400004024050
:1005300000080240000C024000100240001402407B
:1005400000180240001C024000200240002402402B
:10055000003C014080B487B000AF78603960002370
:100560003B610023FB600023BB6000237B61DAE07A
:100570007B69012202FA03F33B613A683B6913404D
:10058000FB60FA683B699A4240F0CA807B681A684F
:100590007B695B00194603238B40DB431A407B6871
:1005A0001A607B69DA087B69D9087B68083153F8DF
:1005B00021107B6903F007039B0018460F2383403B
:1005C000DB4319407B68083243F822107B689A6845
:1005D0007B695B00194603238B40DB431A407B6831
:1005E0009A607B685A687B69012101FA03F3DB4357
:1005F0001A407B685A607B68DA687B695B00194641
:1006000003238B40DB431A407B68DA604A4A7B69EC
:100610009B08023352F82330BB607B6903F003036D
:100620009B001A460F239340BA681340BB607B6857
:10063000424A934237D07B68414A934231D07B682B
:10064000404A93422BD07B683F4A934225D07B6837
:100650003E4A93421FD07B683D4A934219D07B6843
:100660003C4A934213D07B683B4A93420DD07B684F
:100670003A4A934207D07B68394A934201D1092311
:1006800012E00A2310E008230EE007230CE0062303
:100690000AE0052308E0042306E0032304E0022324
:1006A00002E0012300E000237A6902F003029200D5
:1006B00003FA02F2BB689A4232D17B6903F003036A
:1006C0009B001A460F239340BB601B487B699B0825
:1006D00019497A699208023251F82210BA68D24355
:1006E0000A40023340F823201E491E4B1A68FB685B
:1006F000DB4313400B601B491A4B5A68FB68DB4312
:1007000013404B601749174B9A68FB68DB43134053
:100710008B601449134BDA68FB68DB431340CB60F2
:100720007B6901337B617B690F2B7FF621AF1C371F
:10073000BD465DF8047B7047003801400000024070
:100740000004024000080240000C02400010024079
:100750000014024000180240001C02400020024029
:1007600000240240003C014080B485B000AF7860B6
:100770000B467B807B681A697B881340002B02D074
:100780000123FB7301E00023FB73FB7B1846143746
:10079000BD465DF8047B704780B483B000AF7860DD
:1007A0000B467B8013467B707B78002B03D07A88C6
:1007B0007B689A6103E07B881A047B689A610C3736
:1007C000BD465DF8047B704780B483B000AF7860AD
:1007D0000B467B807B685A697B885A407B685A61EC
:1007E0000C37BD465DF8047B704700BF80B485B010
:1007F00000AF78600B467B804FF48033FB607A88D3
:10080000FB681343FB60FA687B68DA617A887B686F
:10081000DA61FA687B68DA617B68DB69FB607B68B8
:10082000DB6903F48033002B01D0002300E00123B7
:1008300018461437BD465DF8047B704780B582B01A
:1008400000AF0346FB80084B5A69FB881340002B1E
:1008500006D0054AFB885361FB88184600F006F86D
:100860000837BD4680BD00BF003C014080B483B066
:1008700000AF0346FB800C37BD465DF8047B704734
:1008800080B588B000AF786039603B68FB600123B9
:100890003B610123BB6107F10C0378681946FFF740
:1008A000B5FC2037BD4680BD80B584B000AF0423C1
:1008B000FB6017A3D3E90023C7E90023F86800F021
:1008C0002FFA02460B4610461946D7E9002300F0DE
:1008D0008DFA02460B46104619460FA3D3E90023B2
:1008E00000F0D2F802460B46C7E900230C484FF44B
:1008F0000051FFF7C5FF0A484FF400510122FFF7EE
:100900004BFF07484FF400510022FFF745FFF2E785
:10091000A47213B534B716405C2B079E6ECDFF3F13
:1009200000180240AFF3008080B400AF124A124BAF
:100930001B6843F0010313600F4B00229A600E4ABC
:100940000D4B1B6823F0847323F4803313600A4B30
:100950000A4A5A60084A084B1B6823F48023136034
:10096000054B0022DA60064B4FF000629A60BD46EC
:100970005DF8047B704700BF00380240103000244F
:1009800000ED00E080B487B000AF00233B6100239E
:100990007B610223FB600023BB6002237B60324B40
:1009A0009B6803F00C033B613B69042B07D0082BC9
:1009B00009D0002B3FD12D4B2D4A1A603FE02B4B25
:1009C0002C4A1A603BE0284B5B6803F480039B0DC4
:1009D000BB60254B5B6803F03F037B60BB68002B6B
:1009E0000DD0244A7B68B2FBF3F21F4B596847F6DF
:1009F000C0730B409B0903FB02F37B610CE01C4AB4
:100A00007B68B2FBF3F2184B596847F6C0730B4092
:100A10009B0903FB02F37B61134B5B6803F44033D8
:100A20001B0C01335B00FB607A69FB68B2FBF3F3DC
:100A30000E4A136003E00D4B0D4A1A6000BF0A4BCB
:100A40009B6803F0F0031B090B4AD35CDBB23B61EC
:100A5000064B1A683B6922FA03F3044A13601C37F9
:100A6000BD465DF8047B704700380240000000205E
:100A70000024F40040787D010400002081F0004152
:100A800002E000BF83F0004330B54FEA41044FEA73
:100A9000430594EA050F08BF90EA020F1FBF54EA0E
:100AA000000C55EA020C7FEA645C7FEA655C00F0AA
:100AB000E2804FEA5454D4EB5555B8BF6D420CDD7B
:100AC0002C4480EA020281EA030382EA000083EAFE
:100AD000010180EA020281EA0303362D88BF30BD9E
:100AE00011F0004F4FEA01314FF4801C4CEA1131F4
:100AF00002D0404261EB410113F0004F4FEA033353
:100B00004CEA133302D0524263EB430394EA050FDD
:100B100000F0A780A4F10104D5F1200E0DDB02FA4C
:100B20000EFC22FA05F2801841F1000103FA0EF2E0
:100B3000801843FA05F359410EE0A5F120050EF1A6
:100B4000200E012A03FA0EFC28BF4CF0020C43FAD7
:100B500005F3C01851EBE37101F0004507D54FF0E4
:100B6000000EDCF1000C7EEB00006EEB0101B1F534
:100B7000801F1BD3B1F5001F0CD349085FEA30007A
:100B80004FEA3C0C04F101044FEA445212F5800F85
:100B900080F09A80BCF1004F08BF5FEA500C50F122
:100BA000000041EB045141EA050130BD5FEA4C0C05
:100BB000404141EB010111F4801FA4F10104E9D18E
:100BC00091F0000F04BF01460020B1FA81F308BF85
:100BD0002033A3F10B03B3F120020CDA0C3208DD51
:100BE00002F1140CC2F10C0201FA0CF021FA02F12C
:100BF0000CE002F11402D8BFC2F1200C01FA02F19C
:100C000020FA0CFCDCBF41EA0C019040E41AA2BFC0
:100C100001EB0451294330BD6FEA04041F3C1CDA88
:100C20000C340EDC04F11404C4F1200220FA04F0A8
:100C300001FA02F340EA030021FA04F345EA030152
:100C400030BDC4F10C04C4F1200220FA02F001FA14
:100C500004F340EA0300294630BD21FA04F0294696
:100C600030BD94F0000F83F4801306BF81F480112F
:100C70000134013D4EE77FEA645C18BF7FEA655CA2
:100C800029D094EA050F08BF90EA020F05D054EA74
:100C9000000C04BF1946104630BD91EA030F1EBF79
:100CA0000021002030BD5FEA545C05D1400049417D
:100CB00028BF41F0004130BD14F580043CBF01F570
:100CC000801130BD01F0004545F0FE4141F4700156
:100CD0004FF0000030BD7FEA645C1ABF1946104631
:100CE0007FEA655C1CBF0B46024650EA013406BF32
:100CF00052EA033591EA030F41F4002130BD00BFF1
:100D000090F0000F04BF0021704730B54FF48064AD
:100D100004F132044FF000054FF0000150E700BF2E
:100D200090F0000F04BF0021704730B54FF480648D
:100D300004F1320410F0004548BF40424FF000017A
:100D40003EE700BF42004FEAE2014FEA31014FEABD
:100D500002701FBF12F07F4393F07F4F81F060510C
:100D6000704792F0000F14BF93F07F4F704730B57B
:100D70004FF4607401F0004521F0004120E700BF0E
:100D800050EA010208BF704730B54FF000050AE095
:100D900050EA010208BF704730B511F0004502D596
:100DA000404261EB41014FF4806404F132045FEA98
:100DB000915C3FF4DCAE4FF003025FEADC0C18BF3D
:100DC00003325FEADC0C18BF033202EBDC02C2F133
:100DD000200300FA03FC20FA02F001FA03FE40EAC5
:100DE0000E0021FA02F11444C1E600BF70B54FF0C5
:100DF000FF0C4CF4E06C1CEA11541DBF1CEA1355A7
:100E000094EA0C0F95EA0C0F00F0DEF82C4481EA0E
:100E1000030621EA4C5123EA4C5350EA013518BF2E
:100E200052EA033541F4801143F4801338D0A0FB1B
:100E300002CE4FF00005E1FB02E506F00042E0FBC8
:100E400003E54FF00006E1FB03569CF0000F18BFCE
:100E50004EF0010EA4F1FF04B6F5007F64F5407476
:100E600004D25FEA4E0E6D4146EB060642EAC62109
:100E700041EA55514FEAC52040EA5E504FEACE2E76
:100E8000B4F1FD0C88BFBCF5E06F1ED8BEF1004F79
:100E900008BF5FEA500E50F1000041EB045170BDF5
:100EA00006F0004646EA010140EA020081EA030139
:100EB000B4EB5C04C2BFD4EB0C0541EA045170BD35
:100EC00041F480114FF0000E013C00F3AB8014F1AF
:100ED000360FDEBF002001F0004170BDC4F10004F8
:100EE000203C35DA0C341BDC04F11404C4F1200579
:100EF00000FA05F320FA04F001FA05F240EA0200D4
:100F000001F0004221F0004110EBD37021FA04F609
:100F100042EB06015EEA430E08BF20EAD37070BDC3
:100F2000C4F10C04C4F1200500FA04F320FA05F022
:100F300001FA04F240EA020001F0004110EBD37024
:100F400041F100015EEA430E08BF20EAD37070BD94
:100F5000C4F1200500FA05F24EEA020E20FA04F36D
:100F600001FA05F243EA020321FA04F001F000411C
:100F700021FA04F220EA020000EBD3705EEA430E8D
:100F800008BF20EAD37070BD94F0000F0FD101F0BC
:100F90000046400041EB010111F4801F08BF013CF5
:100FA000F7D041EA060195F0000F18BF704703F033
:100FB0000046520043EB030313F4801F08BF013DBA
:100FC000F7D043EA0603704794EA0C0F0CEA135576
:100FD00018BF95EA0C0F0CD050EA410618BF52EA30
:100FE0004306D1D181EA030101F000414FF0000036
:100FF00070BD50EA410606BF1046194652EA430644
:1010000019D094EA0C0F02D150EA013613D195EAB7
:101010000C0F05D152EA03361CBF104619460AD1FF
:1010200081EA030101F0004141F0FE4141F4700109
:101030004FF0000070BD41F0FE4141F4780170BDF9
:1010400070B54FF0FF0C4CF4E06C1CEA11541DBF5E
:101050001CEA135594EA0C0F95EA0C0F00F0A7F860
:10106000A4EB050481EA030E52EA03354FEA01318D
:1010700000F088804FEA03334FF0805545EA1313A0
:1010800043EA12634FEA022245EA111545EA106568
:101090004FEA00260EF000419D4208BF964244F1FF
:1010A000FD0404F5407402D25B084FEA3202B61A1E
:1010B00065EB03055B084FEA32024FF480104FF4F2
:1010C000002CB6EB020E75EB030E22BFB61A754666
:1010D00040EA0C005B084FEA3202B6EB020E75EBF9
:1010E000030E22BFB61A754640EA5C005B084FEA61
:1010F0003202B6EB020E75EB030E22BFB61A75462E
:1011000040EA9C005B084FEA3202B6EB020E75EB38
:10111000030E22BFB61A754640EADC0055EA060EF9
:1011200018D04FEA051545EA16754FEA06164FEA3C
:10113000C30343EA52734FEAC2025FEA1C1CC0D1E8
:1011400011F4801F0BD141EA00014FF000004FF075
:10115000004CB6E711F4801F04BF01430020B4F136
:10116000FD0C88BFBCF5E06F3FF6AFAEB5EB030CEE
:1011700004BFB6EB020C5FEA500C50F1000041EBEB
:10118000045170BD0EF0004E4EEA113114EB5C04B8
:10119000C2BFD4EB0C0541EA045170BD41F480118B
:1011A0004FF0000E013C90E645EA060E8DE60CEA93
:1011B000135594EA0C0F08BF95EA0C0F3FF43BAFB0
:1011C00094EA0C0F0AD150EA01347FF434AF95EA67
:1011D0000C0F7FF425AF104619462CE795EA0C0F4B
:1011E00006D152EA03353FF4FDAE1046194622E718
:1011F00050EA410618BF52EA43067FF4C5AE50EAF2
:1012000041047FF40DAF52EA43057FF4EBAE12E7E1
:1012100070B50F4E0F4D761BB61018BF002405D0C9
:10122000013455F8043B9847A642F9D10A4E0B4DBC
:10123000761B00F0B7F8B61018BF002406D00134B2
:1012400055F8043B9847A642F9D170BD70BD00BF68
:10125000C4130008C4130008CC130008C41300080A
:10126000024B13B1024800F005B8704700000000BF
:1012700081120008014600200246034600F016B81D
:1012800038B5084B084DED1AAC1018BFED1805D055
:10129000013C55F8043D9847002CF9D1BDE8384091
:1012A00000F086B8CC130008D01300082DE9F047F1
:1012B000254C2568D5F84841064688469246994609
:1012C000CCB360681F2818DC431C7EB104EB80059A
:1012D0000121C5F888A0D4F8887101FA00F21743FB
:1012E000022EC4F88871C5F808911ED002306360E0
:1012F00044F820800020BDE8F087144B03B34FF47E
:10130000C870AFF300800446D0B1D5F8483100274B
:1013100080E88800C5F8484138460123C4F8887140
:10132000C4F88C71002EE1D0D0E7D4F88C110A43B8
:10133000C4F88C21DAE705F5A674C5F84841C0E782
:101340004FF0FF30BDE8F087C01300080000000038
:10135000DFF834D0002103E00C4B5B5843500431DC
:101360000B480C4B42189A42F6D30B4A02E000237A
:1013700042F8043B094B9A42F9D3FFF7D5FAFFF73D
:1013800047FFFFF791FA7047FFFF0220D0130008D4
:101390000000002040040020400400205C040020E5
:1013A000FEE70000F8B500BFF8BC08BC9E467047D9
:0C13B000F8B500BFF8BC08BC9E467047B2
:0813BC004300000018000020AE
:0813C40061120008D5010008C8
:0413CC00B101000863
:1013D0000024F400000000000000000001020304EB
:1013E00006070809000000000000000004030020B8
:1013F0006C030020D4030020000000000000000067
:1014000000000000000000000000000000000000DC
:10141000000000000000000000000000BC130008F5
:1014200000000000000000000000000000000000BC
:1014300000000000000000000000000000000000AC
:10144000000000000000000000000000000000009C
:10145000000000000000000000000000000000008C
:10146000000000000000000000000000000000007C
:10147000000000000000000000000000000000006C
:10148000000000000000000000000000000000005C
:1014900001000000000000000E33CDAB34126DE6F9
:1014A000ECDE05000B000000000000000000000062
:1014B000000000000000000000000000000000002C
:1014C000000000000000000000000000000000001C
:1014D000000000000000000000000000000000000C
:1014E00000000000000000000000000000000000FC
:04000005080013518B
:00000001FF
